:100000000C942A000C9494050C94BC050C944700A5
:100010000C9447000C9447000C9447000C94470044
:100020000C9447000C94E9050C9447000C9447008D
:100030000C9447000C9447000C9447000C94470024
:100040000C9447000C9447000C9447000C94470014
:100050000C94470011241FBECFE5D8E0DEBFCDBF12
:1000600010E0A0E6B0E0ECE2FCE002C005900D92EA
:10007000AA3AB107D9F720E0AAEAB0E001C01D9280
:10008000AD3AB207E1F70E9475050C9414060C9482
:100090000000823419F118F4813439F00895833462
:1000A000B1F1843409F44CC00895413059F42AB3B5
:1000B00081E090E002C0880F991F6A95E2F7822BD9
:1000C0008ABB08952AB381E090E002C0880F991F8F
:1000D0006A95E2F7809582238ABB0895413059F4EE
:1000E00027B381E090E002C0880F991F6A95E2F77C
:1000F000822B87BB089527B381E090E002C0880F70
:10010000991F6A95E2F78095822387BB0895413055
:1001100059F424B381E090E002C0880F991F6A95DA
:10012000E2F7822B84BB089524B381E090E002C003
:10013000880F991F6A95E2F78095822384BB089502
:10014000413059F421B381E090E002C0880F991F3B
:100150006A95E2F7822B81BB089521B381E090E09C
:1001600002C0880F991F6A95E2F78095822381BBB0
:100170000895823419F118F4813439F008958334E4
:10018000B1F1843409F44CC00895413059F42BB3D3
:1001900081E090E002C0880F991F6A95E2F7822BF8
:1001A0008BBB08952BB381E090E002C0880F991FAC
:1001B0006A95E2F7809582238BBB0895413059F40C
:1001C00028B381E090E002C0880F991F6A95E2F79A
:1001D000822B88BB089528B381E090E002C0880F8D
:1001E000991F6A95E2F78095822388BB0895413074
:1001F00059F425B381E090E002C0880F991F6A95F9
:10020000E2F7822B85BB089525B381E090E002C020
:10021000880F991F6A95E2F78095822385BB089520
:10022000413059F422B381E090E002C0880F991F59
:100230006A95E2F7822B82BB089522B381E090E0B9
:1002400002C0880F991F6A95E2F78095822382BBCE
:1002500008958234E9F018F4813431F055C08334C4
:1002600059F18434E9F150C049B381E090E09C0138
:10027000062E02C0220F331F0A94E2F7842F90E06B
:100280008223932302C0959587956A95E2F7089596
:1002900046B381E090E09C01062E02C0220F331F7E
:1002A0000A94E2F7842F90E08223932302C095956D
:1002B00087956A95E2F7089543B381E090E09C0149
:1002C000062E02C0220F331F0A94E2F7842F90E01B
:1002D0008223932302C0959587956A95E2F7089546
:1002E00040B381E090E09C01062E02C0220F331F34
:1002F0000A94E2F7842F90E08223932302C095951D
:1003000087956A95E2F7089580E00895823459F060
:1003100018F4813431F00895833439F0843439F09D
:1003200008956BBB089568BB089565BB089562BBD3
:100330000895823461F118F4813441F008958334D2
:1003400009F446C0843409F464C00895413099F436
:1003500080B78B7F80BF2AB381E090E002C0880F16
:10036000991F6A95E2F7982F909592239ABB9BB3B9
:10037000892B8BBB08952BB381E090E002C0880FDE
:10038000991F6A95E2F7809582238BBB08954130CF
:1003900099F480B78B7F80BF27B381E090E002C0E3
:1003A000880F991F6A95E2F7982F9095922397BB33
:1003B00098B3892B88BB089528B381E090E002C0F0
:1003C000880F991F6A95E2F78095822388BB08956C
:1003D000413099F480B78B7F80BF24B381E090E0F7
:1003E00002C0880F991F6A95E2F7982F9095922383
:1003F00094BB95B3892B85BB089525B381E090E02C
:1004000002C0880F991F6A95E2F78095822385BB09
:100410000895413099F480B78B7F80BF21B381E08C
:1004200090E002C0880F991F6A95E2F7982F909587
:10043000922391BB92B3892B82BB089522B381E0B2
:1004400090E002C0880F991F6A95E2F78095822399
:1004500082BB0895813031F138F0823009F440C018
:10046000833009F45AC076C041110DC02AB381E02F
:1004700090E002C0880F991F6A95E2F78095822369
:100480008ABB81E070C0413009F066C02AB381E0C8
:1004900090E002C0880F991F6A95E2F7822B8ABB11
:1004A00081E061C041110DC027B381E090E002C03E
:1004B000880F991F6A95E2F78095822387BB81E0B8
:1004C00052C0413009F04AC027B381E090E002C039
:1004D000880F991F6A95E2F7822B87BB81E043C0A2
:1004E00041110DC024B381E090E002C0880F991F34
:1004F0006A95E2F78095822384BB81E034C0413065
:1005000079F524B381E090E002C0880F991F6A95C5
:10051000E2F7822B84BB81E026C041110DC021B3DC
:1005200081E090E002C0880F991F6A95E2F78095FC
:10053000822381BB81E017C04130A1F421B381E067
:1005400090E002C0880F991F6A95E2F7822B81BB69
:1005500081E009C080E007C080E005C080E003C002
:1005600080E001C080E000000895DC01E199FECF49
:1005700020E030E00FC0F901EA0FFB1FFFBBEEBB2C
:100580009CB391609CBBFB01E20FF31F9DB3908372
:100590002F5F3F4F2417350770F30895E199FECF81
:1005A0009FBB8EBB8CB381608CBB8DB3861739F03B
:1005B0006DBB8CB384608CBB8CB382608CBB0895A4
:1005C000CF93DF93DC01EA0120E030E01AC0E1992B
:1005D000FECFC9018A0F9B1F9FBB8EBB9CB391604E
:1005E0009CBB5DB3FB01E20FF31F9081591739F0FB
:1005F0009DBB9CB394609CBB9CB392609CBB2F5FE3
:100600003F4F2C173D0718F3DF91CF91089541E03C
:1006100060E083E40E94490041E061E083E40E94DD
:10062000490041E062E083E40E94490041E063E068
:1006300083E40E94490040E064E083E40E944900B2
:1006400040E065E083E40E94490040E066E083E426
:100650000E94490040E067E083E40E94490041E0D5
:1006600064E083E40E94990141E065E083E40E9434
:10067000990141E066E083E40E94990141E067E06E
:1006800083E40E9499010895FF920F931F93CF93E3
:10069000DF93CDB7DEB760970FB6F894DEBF0FBE1D
:1006A000CDBF80E1E0E6F0E0DE01119601900D9211
:1006B0008A95E1F7FF24FA9400E03CC041E060E055
:1006C00083E40E94B90041E061E083E40E94B90044
:1006D00041E062E083E40E94B90041E063E083E42A
:1006E0000E94B9008FE19EE40197F1F700C000007D
:1006F00040E0602F83E40E94B90010E018C064E07D
:10070000610F83E40E942901811110C0E02FF0E005
:10071000EE0FFF1FEE0FFF1F81E090E08C0F9D1F7B
:10072000E80FF91FE10FF11DF08003C01F5F1430C7
:1007300030F30F5F043010F28F2D60960FB6F894EF
:10074000DEBF0FBECDBFDF91CF911F910F91FF9004
:10075000089541E060E082E40E94B9008FEC97E0E8
:100760000197F1F700C0000040E060E082E40E94E1
:10077000B9008FEC97E00197F1F700C000000895F1
:10078000682F81E40E94860140E061E082E40E94DB
:10079000B9000E94A903089541E060E081E40E944D
:1007A000490041E061E081E40E94490041E062E0EB
:1007B00081E40E94490041E063E081E40E94490035
:1007C00041E064E081E40E94490041E065E081E4A9
:1007D0000E94490041E066E081E40E94490041E056
:1007E00067E081E40E94490041E060E082E40E9409
:1007F000490041E062E082E40E94490041E061E09A
:1008000082E40E94490040E062E082E40E94B90074
:1008100088E30E94C00381E00E94C0038EE00E9432
:10082000C0038FE097E20197F1F700C00000089540
:10083000682F81E40E94860141E061E082E40E9429
:10084000B9000E94A9030895CF93DF93EC0103C080
:100850000E941804219688818111FACFDF91CF91EF
:10086000089581E00E94C0030895813019F48FE754
:10087000860F06C0823019F48FEB860F01C080E826
:100880000E94C003089585E08EBD1FBC86EE99EFDF
:100890009DBD8CBD84E089BF08958EB58E7F8EBDD1
:1008A0008EB58B7F8EBD0895DC0190E00DC0292FA1
:1008B00030E0FD01E20FF31F5081FB01E20FF31F57
:1008C0002081521305C09F5F941788F381E008953B
:1008D00080E008951F93CF93DF93CDB7DEB72897BD
:1008E0000FB6F894DEBF0FBECDBF8FEF8093AC0084
:1008F00089838A838B838C838D838E838F83888780
:100900007AC08FEF8093AC000E94310480E790E0C2
:100910000E9424048FE493EC0197F1F700C00000DB
:1009200010E053C00E9444038093AC008091AC005F
:100930008F3FC1F3E1E0F0E0EC0FFD1FE10FF11D8F
:1009400080830E9418048FE19EE40197F1F700C0B4
:1009500000006CE0610F81E00E9435048AE20E9491
:1009600018048FE19EE40197F1F700C000001F5FBB
:100970008FEF8093AC0044E050E0BE016B5F7F4F8F
:1009800082E091E00E94B502412FBE016B5F7F4F74
:10099000CE0101960E945404813019F48093AB007B
:1009A00014C01092AB000E9431048CE790E00E94CA
:1009B00024049FEF24E38CE0915020408040E1F735
:1009C00000C000000E94310403C0143008F4AECF10
:1009D0008091AB00813079F40E94310487E890E087
:1009E0000E9424049FE72AE186E091502040804045
:1009F000E1F700C000008091AB00813009F081CFA9
:100A000028960FB6F894DEBF0FBECDBFDF91CF9111
:100A10001F9108951F93CF93DF9300D000D0CDB7DF
:100A2000DEB786EE99EF9DBD8CBD0E94310484E94E
:100A300090E00E9424048FEF89838A838B838C83C8
:100A400010E02AC08FEF8093AC0004C00E944403E2
:100A50008093AC008091AC008F3FC1F3E1E0F0E007
:100A6000EC0FFD1FE10FF11D80830E9418048FE140
:100A70009EE40197F1F700C000006AE0610F81E099
:100A80000E9435048AE20E9418048FE493EC0197D7
:100A9000F1F700C000001F5F1430A0F244E050E006
:100AA000BE016F5F7F4F82E091E00E94E00261E053
:100AB00080E091E00E94CE020E9431048EE990E035
:100AC0000E9424049FE72AE186E091502040804064
:100AD000E1F700C000000E9431040F900F900F90CA
:100AE0000F90DF91CF911F91089540E062E083E085
:100AF0000E942A0240E063E083E00E942A021092F2
:100B0000AB008FEF8093AC000E94CC030E940703E0
:100B100080EE8BBF85B78E6085BF84B7806484BF4D
:100B200078941092AA00FFCF1F920F920FB60F92E7
:100B300011242F933F934F935F936F937F938F93E2
:100B40009F93AF93BF93EF93FF93789481E080934B
:100B5000AA000E944304FF91EF91BF91AF919F9132
:100B60008F917F916F915F914F913F912F910F9056
:100B70000FBE0F901F9018951F920F920FB60F92F5
:100B800011242F933F934F935F936F937F938F9392
:100B90009F93AF93BF93EF93FF9378940E944D047C
:100BA0000E94310461E081E00E9435040E946A04E1
:100BB000FF91EF91BF91AF919F918F917F916F9135
:100BC0005F914F913F912F910F900FBE0F901F900B
:100BD00018951F920F920FB60F9211242F933F93E7
:100BE0004F935F936F937F938F939F93AF93BF9335
:100BF000EF93FF9378948091AA00813021F41092B2
:100C0000AA000E940A05FF91EF91BF91AF919F91B9
:100C10008F917F916F915F914F913F912F910F90A5
:0C0C20000FBE0F901F901895F894FFCFA6
:100C2C003738392F3435362A3132332D41303D2B7C
:100C3C00456E74657220506173733A0057726F6E13
:100C4C0067205061737300636F72726563742070F8
:100C5C006173730053657420706173733A00506153
:0A0C6C007373205361766564000085
:00000001FF
